K9S17A501      00959NEGRON              ALBERTO NEGRON                                              U-10 13TH VILLA RICA          BAYAMON             PR                                                         01065529572113                           0030190479500100000000959      TFDAADFAAADFFDAFDTTAATFDTDAADDDFFTDFTTTAADAATTDTAFTDTAFTFFFTDATAD
K9S17A501      01041MATUSZCZAK          PAUL S MATUSZCZAK                                           PO BOX 4921                   HOLYOKE             MA                 215                    B012    4921     01065529572350                0001A      0030190479500100000001041492121FAATTDDATAFDFDADDATTFTTATDDADFFFFAAFATDFFAAADDADTTTDFADTTATDFTDAA
K9S18A201      01096MARCINCZYK          PAUL MARCINCZYK                                             133 SUGAR HILL RD             WILLIAMSBURG        MA                 339                    R002    9316     01065529572598                0154A      0030190479500100000001096931633AFTFADDFTAFDAADFFTTTAAFAAFATFADADADFADFDAATFDTFTDFFDAFADAAATATFAD
K9S14A301      01267KENNEDY             JOHN KENNEDY                                                784 N HOOSAC RD               WILLIAMSTOWN        MA                 842                    C003    2323     01065529572830                0062D      0030190479500100000001267232384DFTFTDDDADDAADDAFTFTAFDFFTTAATFTAFADFFDTADTFADTDTFTDDTTTFADDDATAD
K9S19A001      01440ARSENAULT           JOSEPH ARSENAULT                                            59 BAYBERRY DR                GARDNER             MA                 596                    C002    3396     01065529573070                0279A      0030190479500100000001440339659ADDFTATFDTDDDTATAAAADAAAFFATDTFDTDDFAAATAFADDFFTADDAFTTFFDADDDAAD
K9S13A601      01507SEPUKA              FRANCIS T/JARED SEPUKA                                      149 MUGGETT HILL RD           CHARLTON            MA                 499                    R001    1329     01065529573314                0283D      0030190479500100000001507132949DTTFDTATFADFATFTFAFDFDATAFFFFATATAADADFTAADFATDADFFTAFFAFFDFTATDD
K9S17A501      01543NAHRWOLD            TIM NAHRWOLD                                                149 POMMOGUSSETT RD           RUTLAND             MA                 493                    R003    1442     01065529573550                0065D      0030190479500100000001543144249FFADDDAFATFATATFAATTTAAATAATATDDADADDTADFTFFDDTTTDAADFDDDAAAFDADF
K9S11A001      01702PAGE                FREDERICK S PAGE                                            777 SALEM END RD              FRAMINGHAM          MA                 770                    R004    5542     01065529573799                0052A      0030190479500100000001702554277DDFTAATTDDTTTADATFTDTDFDTATAFDTAFFAFADTTAFDAFTTADTDTATTAFDTADFDFA
K9S11A001      01801WALDRON             PHILIP T WALDRON                                            10 HART PL                    WOBURN              MA                 100                    C062    2331     01065529574027                0027D      0030190479500100000001801233110FFTDAADTDFATFFAFTDDTFFFTAATFATDATDFFFAFAAAFTTTATFFTDTTFTADFAAADFA
K9S17A501      01851EICHTEN             PAUL J. EICHTEN               APT 4                         97 FOREST ST                  LOWELL              MA                 048                    C057    4946     01065529574264                0055A      0030190479500100000001851494604DTTFDFDTDDTATDFATDTTDAATFTFADAADAAATDFADAFTTDAAATTFFFFTAAFDTTFDTD
K9S14A301      01922ROGERS              ROBERT ROGERS                                               12 RODGERS LN                 BYFIELD             MA                 127                    R002    1401     01065529574507                0359A      0030190479500100000001922140112TATATATTADFDDDATTFTTADTDATADTDDTTAAADAADTAADFFFDFFFFDATTAAFDDTADT
K9S14A301      01970FRAYLER             MICHAEL J FRAYLER                                           10 HARTFORD ST                SALEM               MA                 104                    C031    1034     01065529574744                0082A      0030190479500100000001970103410AADFDTFDDAADDDTAAFFAAFTTFADFFDTFTTDAAATDFDAFDADDTFFAADFTDFDADTTAD
K9S19A001      02038MURPHY              PAUL G MURPHY                                               PO BOX 267                    FRANKLIN            MA                 679                    B003    0267     01065529574980                0001A      0030190479500100000002038026767TATDDFTTFTFDAFFFFDADAAFFFDATAFFDATDTFTDFFTAAAAFTDDATADTATATADTATF
K9S19A001      02127SPILIOS             PLATO A. SPILIOS                                            39 DAMRELL ST                 BOSTON              MA                 395                    C015    2702     01065529575228                0216A      0030190479500100000002127270239TTDFTAFTAADDFDDTFFDDAFFTFFDFTFTFFAADFDTTDDDTFDATFATDTTADATFTAFAAT
K9S18A201      02169FULLER              THOMAS FULLER                 APT 3                         52 S WALNUT ST                QUINCY              MA                 037                    C042    6862     01065529575465                0047A      0030190479500100000002169686203FTFTFFAAAATFAATFATFFAAADFFTFFTAFDFFFADATDAFTADDDATFTFAATFDDDFTTTA
K9S11A001      02324COYMAN              JOHN L COYMAN                                               857 HIGH ST                   BRIDGEWATER         MA                 572                    R010    1707     01065529575708                0019D      0030190479500100000002324170757DFDTADDFTAFTATADAFFTFTFTFDDDDAAFATTDDFDFFADATDADDFFTDDTTFTFAADFDD
K9S17A501      02360BURGESS             GEORGE A BURGESS                                            9 ALEC WAY                    PLYMOUTH            MA                 092                    R018    4699     01065529575945                0101A      0030190479500100000002360469909DTTDTADDDFDATDDAAAAFTFDFTFATDDTTAFAADAFAADDDFDDFTTTADAFAAADFTAFDF
K9S12A901      02474DEAN                T. A. DEAN                                                  PO BOX 1245                   EAST ARLINGTON      MA                 451                    B021    0021     01065529576178                0001A      0030190479500100000002474002145DTDTAADFFFFDADATFDTFFDDAFFAFAATFTTTFAFTTAFAADFDDFDADTTDATFDDTATFD
K9S12A902      02563CASSELLO            GEORGE JOHN CASSELLO                                        30 MANOMOK CIR                SANDWICH            MA                 307                    R007    2679     01065529576410                0130A     M0030190479500100000002563267930DFTDADFAAADFAFFDDTFTATFFDAAFTFTTDATAAADTFDDADATFFTFTTDTTDTDFFAFFF
K9S19A002      02668KIOTIC              RICHARD KIOTIC                                              56 ALDERBROOK LN              W BARNSTBLE         MA                 567                    R001    1216     01065529576658                0106D     M0030190479500100000002668121656DTDTADTTFFTFFFFDFDDTAADFFFTADTDDFDFDFDDTDDTTTFDADTDTFDTFADAFAFTDF
K9S18A201      02745BARROS              JOSEPH BARROS                                               PO BOX 50113                  NEW BEDFORD         MA                 134                    B001    0004     01065529576895                0003A      0030190479500100000002745000413TDDFAATADDTFADDTFFDFFFDDDTFDFATDFADDTADFAATFTAFDDFATDAFTADAAADAAT
K9S14A301      02790EMONT               DAVID EMONT                                                 676 SANFORD RD                WESTPORT            MA                 761                    R006    4031     01065529577130                0156A      0030190479500100000002790403176TAAATDTDDFFTTFFDTADFTAAFFATAFTAFADDTDADTTFTADDFATTFATTDFDDDFAAFAT
K9S12A901      02828O KEEFE             J G O KEEFE                                                 20 MAPLECREST DR              GREENVILLE          RI                 202                    C002    2914     01065529577379                0008D      0030190479500100000002828291420DFDDFDAATDFFTAFDDFTTTFFDAFAFATTATDTDDFFADTFTDFTADFAAADFAATFAAATAD
K9S13A601      02871SABULIS             JOHN SABULIS                                                194 MIDDLE RD                 PORTSMOUTH          RI                 948                    R011    1208     01065529577610                0043A      0030190479500100000002871120894TATATFTTTDDAADDFTFDAADTATADFDADADTATFAFTTTADDFDDAFAFDDADDDTAFTDTF
K9S12A901      02904MIKE GEORGE         MIKE GEORGE                                                 1 WASHINGTON ST               NORTH PROVIDENCE    RI                 017                    C048    4814     01065529577859                0081A      0030190479500100000002904481401DDFTFFDDDDDDDAAATFTTTFADTATFDAFAFAFDFFTDFFTADFFDDTDATFATDTFFFAFTA
K9S19A001      03031PRITCHARD           P PRITCHARD                                                 15 WINDSOR DR                 AMHERST             NH                 159                    R007    2105     01065529578090                0141D      0030190479500100000003031210515DAFDDFFFFAATTTTDDAFTTDDFFATDDTFAADTFATAADDFFDTFAATFAATDTAADTADFAD
K9S17A501      03051RODS GUNS           RODS GUNS                                                   12 WINDHAM RD                 HUDSON              NH                 129                    R005    3510     01065529578324                0020D      0030190479500100000003051351012AFFFDATFTAFFAATDDAADDDADTTAFFADDAFFDTDFATATFAFATTAATADADDADFTTFDF
K9S19A001      03079ADAMS               LARRY ADAMS                                                 3 ROYAL CIR                   SALEM               NH                 033                    C013    2643     01065529578560                0203A      0030190479500100000003079264303DFATAFAAAATATAADFTDDDFFDTFDDFDAADDDATTTTFADADADFAAFAATADDTTATDFAT
K9S19A001      03110HAINES              RICHARD HAINES                                              275 NEW BOSTON RD             BEDFORD             NH                 756                    R002    4319     01065529578804                0001A      0030190479500100000003110431975FTFTFATAATFTFTTTTDTDFTDDADAADAFTTTADDAAFFTAAAFADTADDDFFFFTDFDTAAA
K9S18A201      03247ONOFRIO             D L ONOFRIO                                                 PO BOX 7041                   LACONIA             NH                 417                    B701    7041     01065529579045                0001A      0030190479500100000003247704141TTFDTFFDTAADFTDDFTFDFFFAATFDFFTTATDTDFAAATATATFFAATDTFAADADDDFATA
K9S19A001      03282RUGGIERO            LOUIS RUGGIERO                                              PO BOX 183                    WENTWORTH           NH                 832                    B003    0183     01065529579282                0001A      0030190479500100000003282018383AADTAATTDADATFFATDADDFTTDDAAFDFTDDFDAADFTTFTFFTTTDFAAADDAATTDAATA
K9S18A201      03431WILSON              R WILSON                                                    685 WEST ST                   KEENE               NH                 852                    C015    2147     01065529579525                0058A      0030190479500100000003431214785FDDFTDAADFFDFTTFTFTADDTATTDTFADTFFFFFDDADATTTFFTDTDDDAFTFDAATAATF
K9S16A801      03574WRIGHT              MR DOUG WRIGHT                                              PO BOX 383                    BETHLEHEM           NH                 836                    B004    0383     01065529579762                0001A      0030190479500100000003574038383TTTFDFADFFDFTDFADTTATATFFDFFFTDFTFFDTFDFATDADDFDFDFFAADDATAAATAAD
K9S12A901      03773SHACKETT            WILLIAM E. SHACKETT                                         41 CROYDON BROOK RD           CROYDON             NH                 417                    R001    6606     01065529580000                0190D      0030190479500100000003773660641DDTDDADFTFTADFFTAAAADDFTFFTAADDAFFFDFAAFFDFTFTDDTDFDDFAFDADDTFDDD
K9S17A501      03820PARADIS             RAY PARADIS                                                 2 NUTE RD                     DOVER               NH                 022                    0008    9103     01065529580248                0003A      0030190479500100000003820910302TTTDTTTDTTFADDFAATAATDDADDATATDATDAAFAADAAFAFDDTDDFDDTAFTFFDFFFDF
K9S11A001      03844PAUL                LIPP PAUL                                                   19 FRYING PAN LN              HAMPTON FALLS       NH                 190                    R001    2423     01065529580477                0108A      0030190479500100000003844242319DFTADFATDFTAADTADAAFDATAFDFAADAFTTDFTAAATAFFTDAATFAFTAFDADDDFTFFA
K9S19A001      03878DUBOIS              RONALD DUBOIS                                               37 LILY POND RD               SOMERSWORTH         NH                 379                    C007    2021     01065529580710                0352A     S0030190479500100000003878202137ADAAAATTAFTDTDDFDTFDFFFDDDATTFFDFFTADADDTFFTDTTTDFFDATFAATFFTFFDA
K9S13A601      04011GRAY                JOHN L GRAY                                                 1 LONG ST                     BRUNSWICK           ME                 018                    R004    9466     01065529580957                0110A      0030190479500100000004011946601DFTDTAFDADTAAFFTFATDFFDFTATADFAATDAFFAFTFAATTDATAADTDAFTTFAATTTDA
K9S17A501      04062BUSHMASTER FIREA    BUSHMASTER FIREARMS                                         PO BOX 1479                   WINDHAM             ME                 791                    B013    1479     01065529581198                0001A     S0030190479500100000004062147979ATFTAAAADFADFFATFFFFFFFDADTADFATTFAAAFFDDFTAFDATTDTDFTFAFTTFDDTFF
K9S18A201      04103CADORETTE           MR RICK CADORETTE                                           205 WOODFORD ST               PORTLAND            ME                 055                    C094    5601     01065529581430                0058A      0030190479500100000004103560105FFTFADAATAFADDFDDATDDDFDTFFFFDFTTATATTTADFAAAFFFTTFFADTTTATTTTTAD
K9S18A201      04239BAXTER              WILLIAM BAXTER                                              165 DAVIS RD                  JAY                 ME                 657                    R001    4433     01065529581678                0266D      0030190479500100000004239443365TAFFFFFAAADDTTATFATDFFFDFTAFDAADDDTADDTFTFTFDAADAFFATAATDFTDDTDTF
K9S11A001      04281LORD                MERTON S LORD                                               10 STREAKED MOUNTAIN RD       SOUTH PARIS         ME                 101                    R001    6124     01065529581910                0143A      0030190479500100000004281612410AFTAFDATFAAADTAAATTFFADTATADAFFDTDFFDTFFAFDFDTDTADTAFDTTAFTFFTATA
K9S18A201      04353BENNE               SANDY BENNE                                                 PO BOX 99                     WHITEFIELD          ME                 999                    B001    0099     01065529582150                0001A      0030190479500100000004353009999FADATTFDTDATTADFFDDTDTDFDTDDTDFFAAFAAADFDDDTDDAAAATFTAFFADAFDFAFD
K9S11A002      04418REINZO              JOHN REINZO                                                 81 LITTLEFIELD RD             GREENFLD TWP        ME                 812                    H063    7221     01065529582399                0178A     M0030190479500100000004418722181AAAAADFTAATTFATDTTDDFFAADATADFDADADDTDDTAFAATAAAFFTDFFFDTTTTTDTAD
K9S13A601      04468HUSTON              ROLAND L HUSTON                                             PO BOX 218                    OLD TOWN            ME                 188                    B003    0218     01065529582623                0001A      0030190479500100000004468021818TDFDTAFFDFFFDAAATFFDDDFTFAATATATDDTAATTFAAFDFTTDDTAATDFFAADDDAFFD
K9S14A301      04554CROOKER             TOBY CROOKER                                                PO BOX 104                    NEW HARBOR          ME                 043                    B001    0104     01065529582860                0028A      0030190479500100000004554010404FAFFFDFFDATATDDAFAFFADTFAFFAAAFDFDATAFDDDDDADTTTAFDDFFDATADFATATD
K9S11A001      04654HALL                JAMES HALL                                                  385 ELM ST                    MACHIAS             ME                 854                    H070    1427     01065529583107                0055A      0030190479500100000004654142785TDAATDATDFDFAADATDATDTDTTTFFTTADDTDAATFFDTTFDTAFFFFATTAFFDDTDFFFD
K9S13A601      04781DAIGLE              JEFFREY A. DAIGLE                                           29 SUTTON SIDING RD           WALLAGRASS          ME                 292                    R001    3013     01065529583344                0103A      0030190479500100000004781301329TFDFAAAFFTTATFDADFDFADFFADTTDATDFDDFTADDFADDFDADFFFDDFDAFFDTADFFA
K9S13A601      04920CHASE               EVELYN M CHASE                PO BOX 684                    291 MAIN ST                   BINGHAM             ME                 845                    B007    0684     01065529583580                0001A      0030190479500100000004920068484AAADAFFTDAATTTAAFTAFAAFFDFTTAAAFADTAAAFDFDDTDTDDDDDTDTDTDDAADDAAA
K9S13A601      04957FLUET               LOUIS FLUET                                                 79 HAMPSHIRE HILL RD          NORRIDGEWOCK        ME                 796                    R002    4829     01065529583824                0273A      0030190479500100000004957482979TDDFFAAAAFFTFAFDTDATTDAFDTFFDTTFATTTTTFTAATAAFDAATTFFDDAFDFTDAFDF
K9S11A001      05051MC DONNELL          PAUL MC DONNELL                                             6846 ROUTE 5 S                NEWBURY             VT                 460                    R001    9730     01065529584065                0028A      0030190479500100000005051973046TFTAADFDDDTFDDFTFATFFATTFTFDTTDTFTTFAADTDFFAAFFATTTFDAFTATTTTTATF
K9S17A501      05261LANCTO              GREGORY LANCTO                                              33 QUINN DR                   POWNAL              VT                 338                    R002    9300     01065529584308                0090D      0030190479500100000005261930033TAFFFFFFATADDATAADTAFTDTTATTDFTDFFDTTAAFDDFAATFFFAAFTAADAAADTAATD
K9S12A901      05446TETZLAFF            DONALD TETZLAFF                                             127 AIKEY LN                  COLCHESTER          VT                 277                    R007    4470     01065529584545                0167A      0030190479500100000005446447027DFADTDDDDTFFFATFFDTTDFTDFFDDFDDDATTDTAFFFFAFAAFTFDDDFAFTTADTATFTF
K9S17A501      05464PAULMAN             RAYMOND E PAULMAN                                           PO BOX 137                    JEFFERSONVLLE       VT                 370                    0001    0137     01065529584774                0243A      0030190479500100000005464013737DFFFDDDFATFDFTFFDATTTFTDDFTDTTTFFTFTDDDFFTFATAFTFTDDATTTDADATADAT
K9S13A601      05483ROY                 JOAN C ROY                                                  445 MACHIA RD                 SHELDON             VT                 454                    R001    9792     01065529585010                0114A      0030190479500100000005483979245AFDFFFTTFTTADDTAAFADFADTDDFAFFTTTFFTTFTFTTAFAAFADFTTTFDFFFDTTADFA
K9S15A001      05656PIPER               GEORGE W II PIPER                                           184 VT ROUTE 100C             JOHNSON             VT                 847                    0156    9118     01065529585258                0285D      0030190479500100000005656911884FDTATATDFTDATDAATATDDTDDAAFDTFATFATDTTAADTADAFDADFFADTTFFDTATDTDA
K9S18A201      05733MCSHANE             JOHN MCSHANE                                                632 E BURR POND RD            SUDBURY             VT                 328                    R001    9820     01065529585495                0115A      0030190479500100000005733982032DATTDTATDAAADTAFTTTADDTDDADFAAAATDDFAFADFFTFDDFDFATTTFDFFFAAFDDFT
K9S13A601      05777PARIE               JOHN R/BEVERLEY PARIE                                       1069 CROSS RD                 WEST RUTLAND        VT                 693                    R001    9269     01065529585738                0318A      0030190479500100000005777926969DFFTFFATAFDAAFDTFTADATFTDDTADDADAAFDADTFFFFDAFDDADADAAATTADTFTTFD
K9S20A001      06002BOTTICELLO          MR BRUCE BOTTICELLO                                         14 WATKINS RD                 BLOOMFIELD          CT                 149                    C013    2222     01065529585975                0104D      0030190479500100000006002222214TTATFAFTFDDFDFATDATTTAFAFDTTTFTFDTFTTAFTDFDFDTATATTFFFTFFTFAADADD
K9S16A801      06037RICHARDSON          DONALD RICHARDSON                                           60 BIRCH LN                   KENSINGTON          CT                 607                    R001    3404     01065529586210                0077A      0030190479500100000006037340460FTFAAFTFDDTFFATTDTFFDADDTFFAFFTADFDFDTFDAADDFADDFFADATAFTDTFADTTD
K9S18A201      06066MOODY               RICK MOODY                                                  81 CAMPBELL AVE               VERNON              CT                 811                    R005    5403     01065529586459                0233A      0030190479500100000006066540381FATFAFAADDADTDAAATDAFTDTTDTDDFADFFDTDADDTATAATDTAADFATTFTDTFAADDD
K9S14A301      06093MUSKA               RANDALL MUSKA                                               1580 N STONE ST               WEST SUFFIELD       CT                 802                    R011    2334     01065529586696                0253A      0030190479500100000006093233480TTADAADDADTTFTAFTDFDDTAFATAATDAFDTTDAADTFFAFDFDAAADDAFATAFTTDDDDF
K9S12A901      06118CARLSON             MARK CARLSON                                                74 SHADY LN                   EAST HARTFORD       CT                 742                    C040    1325     01065529586920                0030A      0030190479500100000006118132574ATDTDTFFFAFDFDFADAAFDFFFDDDTDFTADFDFDFTTFATFFDDFFDAAFDTFDTFAFFTFF
K9S12A901      06238SENTIVANY           KARL SENTIVANY                                              230 PLAINS RD                 COVENTRY            CT                 309                    R006    3420     01065529587160                0201A      0030190479500100000006238342030ATFDDFFTTDTTTFTFAAAAADDADDTAFTFAATFDDDDAFTDFAATAATFFFAATADDAATDTA
K9S13A601      06281SAARI               MICHAEL J SAARI               PO BOX 371                    256 CHILD HILL RD             WOODSTOCK           CT                 714                    B004    0371     01065529587404                0019A      0030190479500100000006281037171DDTFTFAAFATTTFFFATADATAFAATTFTATATAAADATFTTDTADAFATAFTATTTFATTATD
K9S18A201      06355WATSON              RUSSELL WATSON                                              52 WHITTLE ST                 MYSTIC              CT                 527                    C005    1312     01065529587640                0067D      0030190479500100000006355131252AFFFDFAFFDADFDFDTFFTAFTFFDAFTDFATDDFDDADTFAFTFDTFTAFAADDFADFAADFA
K9S18A201      06385COLONIS             ANGELO COLONIS                                              10 ROCK RIDGE RD              WATERFORD           CT                 105                    C008    1614     01065529587889                0004D      0030190479500100000006385161410ADDDAFTTTDDDTAATAFFADFTFDFAADFDAAFFDTDDAFATDFDTFFTAAFTAFFFDAAFDAT
K9S18A201      06413MALARO              MICHAEL J MALARO                                            5 COUNTRY VILLAGE LN          CLINTON             CT                 051                    C003    2512     01065529588125                0179D      0030190479500100000006413251205FADAATFTDFDDATFDAAFDFAADDDTTDDDFFADATTDFTTTAADATFFADAFFTDTTTFAFAA
K9S14A301      06443MCDERMOTT           BARRY J MCDERMOTT                                           7 BOWER RD                    MADISON             CT                 070                    0164    2527     01065529588362                0133D      0030190479500100000006443252707FTDFFAATFATFAAADFAADTDFTFFADTDTDFAADDFAADTFFDFDFATADTDTAFDATATDDA
K9S18A201      06461MURPHY              THOMAS MURPHY                                               43 AVON ST                    MILFORD             CT                 430                    C040    4002     01065529588605                0051A      0030190479500100000006461400243DTADTFAFTTFFDFDTTFTATDAATAFFFFDFTDFDAFDTAFAFDFTFATFAATAAATTAAFDFT
K9S12A901      06482BYRON               PAUL BYRON                                                  62 JEREMIAH RD                SANDY HOOK          CT                 620                    R024    1407     01065529588842                0031A      0030190479500100000006482140762FTDAADDFATTADDTATFATTDDDADDFDFAFTDDADAATFDDTFFAADTFFDDFATDDDTDAFD
K9S18A202      06489WANSIK              EDWARD WANSIK                                               47 CELELLA DR                 SOUTHINGTON         CT                 474                    C014    3708     01065529589075                0047D     M0030190479500100000006489370847FFDATFAFDAFATDFAFFDFFDTTTTTTFFDFFDTTFFDFFFDFATFDATTFFFATTATATFFAA
K9S13A601      06605BLANCHARD           RICHARD BLANCHARD             APT 1                         22 MOREHOUSE ST APT 1         BRIDGEPORT          CT                 225                    C005    3254     01065529589318                0151D      0030190479500100000006605325422FTFATTTFFDFFFTDDATTAFAFFADFTADAAATDDAFFAFDAATFDFTFFADDTDDAAADTDFA
K9S16A801      06712KOEHLER             ARNOLD A KOEHLER              KOEHLER COMPANY               111 SALEM RD                  PROSPECT            CT                 113                    C003    1549     01065529589555                0045A      0030190479500100000006712154911DFFTAATTFTTDDTDTAFDFTADDDTFDFFDFFDATDTAAADTFDTAFFTDFFADADFTFTFTTD
K9S14A301      06778JACQUES             STEPHEN JACQUES                                             110 MOOSEHORN RD              NORTHFIELD          CT                 109                    R001    2406     01065529589792                0004A      0030190479500100000006778240610TDFTTTATAFFFFDTFTAAFTFTFAFDAADDTAAADFADTFDFTFFAFDDDFTFTDDFDDDTTDD
K9S19A001      06794ETHERINGTON         DONALD ETHERINGTON                                          52 WHEATON RD                 WASHINGTON DT       CT                 523                    R002    1021     01065529590030                0114A      0030190479500100000006794102152FATDAFDTDDDTDFAAFTFFFATFDDDTFFAAFDFDDFDDTFFATDDTTFATDFAFTDATDDTAT
K9S19A001      06820TSCHERNJAWSKI       W A TSCHERNJAWSKI                                           160 HOLMES AVE                DARIEN              CT                 608                    C012    3818     01065529590278                0012A      0030190479500100000006820381860FFTTAFAFDTTDFDFDFDFDFTAFDDTAADDFAFTTDTDFTTTTATTTFFATDTDDDTDDDFAAA
K9S17A501      06854ROHAN               JOHN W ROHAN                                                11 ELMWOOD AVE                NORWALK             CT                 116                    C009    2007     01065529590510                0058A      0030190479500100000006854200711DAFFDFATATTFFTFFFATTFTDAFAFFFTFAAFFDATTFDFATTTTTFFDTTADTTTAAFDFAF
K9S17A501      06897NEWHOUSE            JAMES NEWHOUSE                                              247 CANNON RD                 WILTON              CT                 477                    C012    2208     01065529590758                0022A      0030190479500100000006897220847DDFDAADTFFAAAFDDAFDFADFADATFFDAFTFFAADADATFAFFFTDDFTFDTAAFAADDDDD
K9S18A201      07006HALPRIN             ARTHUR HALPRIN DD                                           19 CLEVELAND RD               CALDWELL            NJ                 199                    C001    5706     01065529590995                0040A      0030190479500100000007006570619AFFTADDDFDTDFDFTFTTTTTFTFTTADFTFAAADTFTDFFADTAFTTFDDDADDTTFDDTATT
K9S18A201      07031SOSNOWSKI           RAYMOND SOSNOWSKI                                           15 FRONT ST                   N ARLINGTON         NJ                 157                    C041    5821     01065529591223                0030D      0030190479500100000007031582115TTTFDAFDTTADFATDDDDDDATAFTATDDFADATATDDDDFFTAATDDTFDDTAADATFDFATF
K9S11A001      07059RICHMOND            DANIEL RICHMOND                                             29 BROADWAY RD                WARREN              NJ                 293                    C067    5055     01065529591460                0027D      0030190479500100000007059505529FADFFDTTAFFFTFTTFTDDFFFAFDTFFADDDDFDFTATFTTTFFDATADAFADTTATDTAFFF
K9S19A001      07076YASHAY              STAN YASHAY                                                 1690 COOPER RD                SCOTCH PLAINS       NJ                 906                    C016    2544     01065529591703                0065A      0030190479500100000007076254490TFFTFDTAATTADTFAAAFTFAFFADTDAFTFTFAFDFFAFFDTDDDFFDAAFFDDFTFTDTTTA
K9S13A601      07104TROY                RONNIE TROY                   APT 105                       80 2ND AVE APT 105            NEWARK              NJ                 301                    C026    2048     01065529591940                0027A      0030190479500100000007104204830TATTDFFTDFDTFFTATFAATATADFFTDAFDTTDAATFFTAFDTFDDATDTDTADTTTDATATF
K9S17A502      07416RONALD & BERNADE    RONALD & BERNADETTE HOFFMAN                                 232 DAVIS RD                  FRANKLIN            NJ                 324                    R001    1110     01065529592180                0056A     M0030190479500100000007416111032TFAFDDDTADTTDTDTFTAAAATATFATAAFTAFTAFFTADDTDFAAFDAFDDTFATADDDTFFD
K9S18A201      07436HEIL                MR LESTER L HEIL JR                                         159 PAGE DR                   OAKLAND             NJ                 598                    C012    2529     01065529592424                0039D      0030190479500100000007436252959TFFDDDFTAFAFAFAFTADAFTDATFAFDTTFFFAATDDTATTTFAATADTAFAATDDTTDADTA
K9S18A201      07463KEARNS              JAMES KEARNS                                                53 W PROSPECT ST              WALDWICK            NJ                 537                    C009    1608     01065529592660                0056A      0030190479500100000007463160853FAAAATFAFFFDTDDDADTFAFTTTTDDFTAADDATTFFFATTFDDADAAATFTFFFFAFFDTTA
K9S18A201      07624GERALDO             F R GERALDO JR                                              28 NAUGLE ST                  CLOSTER             NJ                 281                    C005    1207     01065529592904                0098A      0030190479500100000007624120728TAATTFDATATDTTAAATDDATADATAFDFDFDDFDTTDTFAFDFTTATAFDFDFTDFDADFDAF
K9S13A601      07661WESTERVELT          MARK A WESTERVELT                                           221 PRINCETON DR              RIVER EDGE          NJ                 213                    C005    1030     01065529593145                0085D      0030190479500100000007661103021TDATADDDAFTADADAFDFFAFFATTATFDDADDTTTADTFTFFFADFFFDFDAAFTFDFTFTTT
K9S14A301      07722MIRRO               ROBERT V MIRRO                                              317 LAKESIDE AVE              COLTS NECK          NJ                 170                    R005    1580     01065529593374                0112D      0030190479500100000007722158017ADFFFDADFDDTDADTFFAFFTAAFATAATFDADATTAATTTTFFFAFFAAFAATFFFFDDFDAD
K9S13A601      07747WINSLOW             WILLIAM D WINSLOW                                           45 IDAHO LN                   MATAWAN             NJ                 457                    C006    1530     01065529593617                0055A      0030190479500100000007747153045DFDTDTAFTADATFTDFTFFTDDDFDDFDFFFAATTFTFTDFAATATFTTFATDTDFFADAADTA
K9S11A001      07827BENSON              MR ROBERT BENSON                                            15 BIRCH TREE RD              MONTAGUE            NJ                 150                    R004    3115     01065529593854                0226A      0030190479500100000007827311515AFFAADFDATDTADFFTADTFTADADDDTDDADFATAATADATTDTDDDATDFFFFDTATTTAFF
K9S11A001      07857HART                BILL HART                                                   12 KINGS RD                   NETCONG             NJ                 124                    C002    1212     01065529594095                0063A      0030190479500100000007857121212FFDAAFTFTAATATFDFAFFFFFATAFTFTFAFDDTADDTDAATFDTTDTATTFFFFFDAAADFT
K9S19A001      07920ROSENBLATT          SETH ROSENBLATT                                             129 WOODWARD LN               BASKING RIDGE       NJ                 298                    C009    2731     01065529594338                0080A      0030190479500100000007920273129FFFTAAFAAFTDDFTTDFFAADTDFDFFADDTFDDDDFDTAADFFDDADADATFTAFTFAAFFTA
K9S13A601      08002ANDERSON            STEPHEN M ANDERSON            UPS ONLY DO NOT USE UPSBU     101 BARLOW AVE                CHERRY HILL         NJ                 010                    C096    2331     01065529594575                0050D      0030190479500100000008002233101FAFDAFTDTTDATTAAAAAFAFFDFTFFDFAAADFFTDTTFAFAFTDTTDAADDTADTTDTAAFD
K9S11A001      08029HARTSELL            EDGAR L HARTSELL                                            828 WOODLAND AVE              GLENDORA            NJ                 289                    C004    1272     01065529594818                0161A      0030190479500100000008029127228DFDFDDFFAFFATAFAADTDFTFFAAAAAFFTFDFAADDTDFDFDTTTDADAFAFATFAAAADDT
K9S18A201      08053COLOSKI             DENNIS COLOSKI                                              309 N LOCUST AVE              MARLTON             NJ                 091                    C035    1364     01065529595059                0161D      0030190479500100000008053136409AAADFFDTFTDFFTTFTDAAAFFFDTDATTDDTFTDATDADDDADFFDTATTDATTTAADFDATT
K9S20A001      08065KAHANA              ROBERT KAHANA                                               721 CINNAMINSON AVE           PALMYRA             NJ                 213                    C004    2553     01065529595296                0040A      0030190479500100000008065255321FDDATFDFFFFTDDDDDTDATTAAFDFFAFFAFATTFTDADDTDTDDADTDAAFFTFFAFDAAAA
K9S18A201      08085STEWART             ROBERT STEWART                                              35 MAIN ST                    SWEDESBORO          NJ                 357                    R002    3065     01065529595520                0057A      0030190479500100000008085306535TTTDAFTDFATATFDFATDFDDTFDFATFFTTFTDTDATTFDADATFFTTDFDFDTFDTFAAADD
K9S18A201      08106WILLIAMSON          JAY WILLIAMSON                                              26 S LECATO AVE               AUDUBON             NJ                 260                    C010    1033     01065529595768                0031A      0030190479500100000008106103326DDTDDFDDDDAFTTFDFAATTDTTATTTDAFTDTFADDAAAADFAATFATFAAAADDTFDFTFFD
K9S18A201      08224GENECKI             T GENECKI                                                   PO BOX 28                     NEW GRETNA          NJ                 284                    B001    0028     01065529596004                0001A      0030190479500100000008224002828DADFTFDDTTFTDDATAADDADFAFAFDTATFDDADDDDTAAFFDFTDDDTFTADTDTAAFFFAT
K9S19A001      08302THOMPSON            MATTHEW R THOMPSON            APT 60                        98 CENTRAL AVE                BRIDGETON           NJ                 607                    C020    2309     01065529596240                0165A      0030190479500100000008302230960FTTTDADDADFDFFTFAFAADDTFTTDTATFATATFDATFTADDTDAFTFDDFTAFTDAAAADFT
K9S17A501      08352FALLICK             JOHN H FALLICK SR                                           PO BOX 488                    ROSENHAYN           NJ                 886                    B009    0488     01065529596489                0001A      0030190479500100000008352048888AFADADFDDDDDTAAAATFFFTTTAFFAFTFATFFDFTAFTAFADFDDFADDAAFATAADFFADA
K9S17A501      08527KROMMES             KEITH KROMMES                                               847 TOMS RIVER RD             JACKSON             NJ                 470                    R021    5237     01065529596720                0161D      0030190479500100000008527523747DTTFFTTDFDFAATFDTTTTDDAFDDAFTTDTDTFDTDDDATTTATDFAFFAATADFATATAADD
K9S14A301      08628FELCONE             FRANK FELCONE                                               14 STATE POLICE DR            EWING               NJ                 142                    C004    2403     01065529596969                0004A      0030190479500100000008628240314TFFDTDTADADATTTAAATTAFFDFAAFAFFATDFTADTADFFTDATTTTTTFDTATTDDDFDTA
K9S11A001      08722HUBER               JUDY HUBER                                                  1332 WINDWARD AVE             BEACHWOOD           NJ                 324                    C003    4314     01065529597205                0121A      0030190479500100000008722431432ATFDDTAAAAAADATADDTDTTFFADFFAAFFDAFDDDAFAADTDTTDADTAFFFTAAFDFFTAD
K9S13A601      08753MARIN               CARLOS MARIN                                                979 WESTMINSTER DR            TOMS RIVER          NJ                 791                    C016    4475     01065529597442                0089A      0030190479500100000008753447579TFTATAFDAADDTFFTATTAAATTFDTDTAFAAAAATFFTFDADTDAATFDAFDTDAATFDTFFF
K9S11A001      08809GAJDA               RICHARD GAJDA                                               68 GRAYROCK RD                CLINTON             NJ                 680                    C002    1073     01065529597670                0016A      0030190479500100000008809107368FTDADFTAAAAAFDTDAADFDTAFFAFTADFFTDTDDTDDTAFFFFFTDDATADAFTFFTFDAAF
K9S13A601      08824RONQUILLO           RUBEN G RONQUILLO                                           13 OXFORD CT                  KENDALL PARK        NJ                 130                    C010    1904     01065529597914                0064A      0030190479500100000008824190413TFFTDAFTTFFFTAFDFTATTDDTFFFDTDTTDDFDDFDATDDADAAATDTADDFFAFATDFFDF
K9S13A601      08848MCCOLLUM            PAIGE / ROY MCCOLLUM                                        4 MILL POND RD                MILFORD             NJ                 044                    R002    2002     01065529598155                0114A      0030190479500100000008848200204FFDTADDFADFFTAAADFFTAAFDATAADADFFFFFATAAADTAATFATADFFFDFAFFAATDFD
K9S17A501      08873JOSEPH              WILLIAM JOSEPH                                              9 ABRAMS CT                   SOMERSET            NJ                 091                    R007    7322     01065529598392                0203A      0030190479500100000008873732209TAFFATFDDFTFTAFFTAFDTDDAAFTFTDAFFDTADDAAFFTFDDAAATDAFAFFFDTADFDFD
K9S14A301      10002SCHRIJVER           ROBERT SCHRIJVER                                            185 BOWERY                    NEW YORK            NY                 995                    C012    2868     01065529598635                0146D      0030190479500100000010002286899TFATFATATATFDAFFDDFTAAFTATAAAATDFTATAADDAFAFDAFDFTTDATFAFAFTDFDFF
K9S19A001      10028RODRIGUEZ           FRANCISCO RODRIGUEZ           APT 5G                        200 E 84TH ST                 NEW YORK            NY                 578                    C020    2926     01065529598872                0191A      0030190479500100000010028292657FAATTAAAFTAFDDADADADAFADDFFDTFDDTTFDAFTDATTAFATDTADTDDTFDTDDFFADF
K9S13A601      10304LIVORNESE           GEORGE P LIVORNESE                                          20 LINK RD                    STATEN ISLAND       NY                 200                    C011    1225     01065529599119                0032A      0030190479500100000010304122520DDDAADTFFFTDFDTTTFTFADTDTDTADFATFAFADTTFFAAFFDFTFDDTTTTFDTFTDDATD
K9S13A601      10453CARWELL             CHARLES CARWELL               10 RICHMAN PLZ APT 14A        10 RICHMOND PLAZA APT 14A     BRONX               NY                 410                    C008    6529     01065529599356                0375A      0030190479500100000010453652941TDDTATFTADDDADFTDTFDAADADDFTAADDTTFAFFTAFTTADATAAADFTAFAFDTTFDFTF
K9S18A201      10467WEIL                ROBERT WEIL                   APT 25E                       690 ALLERTON AVE              BRONX               NY                 552                    C040    7319     01065529599593                0025A      0030190479500100000010467731955DTTDFAFADFFDATFTFADTAFFTDTFFTFDAFADTFFDAAADFDAAFFAFFAFTADTDATFDAD
K9S11A001      10522KERA                MIKE KERA                                                   130 JUDSON AVE                DOBBS FERRY         NY                 304                    C004    3028     01065529599828                0127D      0030190479500100000010522302830TAFADDAADTFAFATDDATDFTDTTTDTFTDTTTAATDTFFATDDADDFAFFATDDFTATFTTFT
K9S16A802      10549MORGAN              HARVEY S MORGAN                                             49 LAURELTON RD               MOUNT KISCO         NY                 494                    R004    4217     01065529600060                0154D     M0030190479500100000010549421749FTATDDFTTTTTTADDFFDADFADADTTADFTTDADFAFAAFATTAFFTFDAAADDATTTFAFTT
K9S14A301      10583HAFFNER             WILLIAM HAFFNER                                             18 BENEDICT RD                SCARSDALE           NY                 180                    C335    7304     01065529600303                0025A      0030190479500100000010583730418ADFDFAAFAFTFDTDTFDTATAFTFTTAFFFATFAFTTDATAFFAADFTATDTAAAFTAFADAAF
K9S19A001      10704GENCARELLI          VINCENT GENCARELLI                                          208 VERNON AVE                YONKERS             NY                 083                    C039    2465     01065529600540                0130D      0030190479500100000010704246508FTFDTDDFTTFTDFATDAFDFDATFDAATAADFTDDADTTFDFTFFTADTDFDAAFDADFADDTT
K9S19A001      10920BEGLEY              DESMOND BEGLEY                                              58 S ROCKLAND AVE             CONGERS             NY                 582                    C005    2227     01065529600788                0005A      0030190479500100000010920222758FDTTDDAAFADFATDFDADATATAFTFDAAAAAATDDTADAADDFDFTTATTTFTFAFDDFFFAA
K9S14A301      10954KUDER               GLEN KUDER                                                  16 COTTAGE AVE                NANUET              NY                 161                    C002    3307     01065529601024                0092D      0030190479500100000010954330716DDAFADFTTTDAAFAFFDDATADTTDTFDAAFTTAFDAFDFTFTDFDTTDFTFFFFDAATFFFTT
K9S19A001      10989ELLSWORTH           ERIC ELLSWORTH                APT 2FL                       776 BROOKRIDGE DRIVE          VLY COTTAGE         NY                 763                    R003    1817     01065529601260                0011A      0030190479500100000010989181776TFFAAAFTDAATTTDTTTFAFTFDTFFATFADATDFATFATDFFFTTFAAFFADFFDDADFFTFF
K9S19A001      11040ULRICH              MR WILLIAM ULRICH JR                                        404 MCNULTY PL                NEW HYDE PARK       NY                 044                    C020    2923     01065529601504                0033D      0030190479500100000011040292304FDFAFATDTAATAAADDDFDDFAAFADDADAFADDAFADTTATTFFFDDATDFDDDFTTADFAAT
K9S17A501      11210MARIN               MARLON G MARIN                                              501 E 29TH ST                 BROOKLYN            NY                 011                    C024    1444     01065529601740                0180D      0030190479500100000011210144401TTFFTFDFDATFDDDAFDTDAFTADATADTFDFDDDFFDTTFDAATFAFADFFAATADAAFATDT
K9S13A601      11224TUCKER              CLEO P TUCKER                 APT 2S                        2940 W 21ST ST APT 2S         BROOKLYN            NY                 495                    C009    2541     01065529601970                0637A      0030190479500100000011224254149FTFAAFTATDDTDAATDTDFFFFTTTTAFTDAFFDADADADFTDAFTFFFDFDDADTADDAAFAD
K9S18A201      11354CHOI                JOSEPH CHOI                                                 3351 153RD ST                 FLUSHING            NY                 518                    C007    3306     01065529602217                0224D      0030190479500100000011354330651TDATDTTDDDDAAADDDDTDTTFFDDAAATTTFDFFFTDTTATTDTFTAAATFTDAATFFDAFFT
K9S13A601      11377OLIVO               VICTOR OLIVO                  APT 2A                        5025 NEWTOWN RD APT 2A        WOODSIDE            NY                 215                    C023    1705     01065529602454                0121A      0030190479500100000011377170521TFAFTDTTTFDTTFDTAFDDADAADDAFFTFTDFTDDDTDDTTDTATTDTDTADDDDFTDTTDDD
K9S13A601      11418PICCIANO            TULIO PICCIANO                                              8759 109TH ST                 RICHMOND HILL       NY                 590                    C038    2234     01065529602690                0081D      0030190479500100000011418223459TTTDFDFFDTTDATAFTTFAFDDDDFDDFDAFTAATDTDFAADAFTDDDADTATDATAFFDFFTF
K9S18A201      11545COYLE               ROBERT COYLE                                                34 COOLIDGE AVE               GLEN HEAD           NY                 342                    C004    1509     01065529602934                0067D      0030190479500100000011545150934AAAFTDATTDFTADDDDFTAATFDAADTFTADFTAAFTFFDDAFATTADFTFDDFDFFTFAADTT
K9S18A201      11572LAVALLE             MR DENNIS LAVALLE             APT 2911                      100 DALY BLVD                 OCEANSIDE           NY                 365                    C064    6031     01065529603175                0074A      0030190479500100000011572603136ADTDDADTFTFAFTDDDFAFTATDATDDFTTTDFFDFTFDFTADTDADAATTDDTDDTTFTDFAD
K9S18A201      11706ROTHWELL            JONATHAN ROTHWELL                                           1687 CENTRAL BLVD             BAY SHORE           NY                 875                    C037    1518     01065529603418                0029A      0030190479500100000011706151887AFFFFATDAAFFATATTAATFDAFTADTFDFFTDAFAFAFFATDAFTTFTFDTAATDFTDTAAAA
K9S17A501      11722GOLDEN              PERCY GOLDEN                                                400 SMITH ST                  CENTRAL ISLIP       NY                 001                    C023    3724     01065529603655                0142A      0030190479500100000011722372400DFADDDFTAFFATFATTFFTFAADADTAFFDADATTTDFAATDTDFAADAAFAADFFFFDTTTAA
K9S11A001      11735BUKOWSKI            ERIC BUKOWSKI                                               10 11TH AVE                   FARMINGDALE         NY                 108                    C022    5748     01065529603892                0004A      0030190479500100000011735574810FATFTFFFTFFFAAADDFTDFADTTDAFADATTTDDDTAFDFDDADTAATTTTDDFAATFFAAAA
K9S19A001      11755JOHNSON             DAVID K JOHNSON                                             130 MAPLE ST S                LAKE GROVE          NY                 307                    C010    2928     01065529604120                0046A      0030190479500100000011755292830TAAFDDTAADFTFTAFATTFADDDAAFFFDFFATAADFAFDFAFTFFATTDDDTAFDFAAFTDTD
K9S18A201      11763ZYSK                ROBERT ZYSK                                                 155 BELLPORT AVE              MEDFORD             NY                 555                    R003    2230     01065529604368                0042A      0030190479500100000011763223055FDTATFATDDATDTFTFDTDDADAADFTAFDTDDDDAAATAFDAAFTAATFFFATTTDDADTAAT
K9S18A201      11777STOMA               HENRY STOMA                                                 25 OLD HOMESTEAD RD           PRT JEFFERSON       NY                 250                    C007    1108     01065529604600                0095D      0030190479500100000011777110825ATDTTFFATTDFTFTTAFFFDFADFFDFFFDAADADDFFTTADAAFTFTTFAAFTTTAATTATDD
K9S19A001      11787GOLDMAN             RICHARD B GOLDMAN                                           18 THATCH POND RD             SMITHTOWN           NY                 188                    C035    1828     01065529604848                0099D      0030190479500100000011787182818FTAADTATTFDDTTFTDDFDTDDTADTATFTATFAFFTFATTDFDAFDDTTFTFATDFFFDFFTA
K9S12A901      11801KOENIG              LAWRENCE KOENIG                                             84 LENOX AVE                  HICKSVILLE          NY                 849                    C003    1322     01065529605089                0092D      0030190479500100000011801132284ADFTTFFDDFDFDDTTAADFTADDTTDTAAADFFFADATATTTFADAFDATAFADDAFFDDTDTF
K9S18A201      11946ZAMARELLI           PAUL ZAMARELLI                                              8 PARK LN                     HAMPTON BAYS        NY                 087                    C002    2813     01065529605320                0012A      0030190479500100000011946281308DDFDDFATTATAAFTTFFTFATFDFAFDDDTTDFATFTFDFTTFTTATATATATFTATDADTFTF
K9S14A301      11968EDWARDS             ROBERT EDWARDS                                              30 HIGHLAND RD                SOUTHAMPTON         NY                 300                    C002    3612     01065529605569                0058D      0030190479500100000011968361230TTFFAADDADFAFFADDDAFDFAFTTDFFTTTFDDFTFTFAFFTAATTFDTDATTFFDTDAADFT
K9S18A201      12033MARCELLO            JAMES MARCELLO                                              2394 RENO RD                  CASTLETON           NY                 947                    R001    9732     01065529605800                0211D      0030190479500100000012033973294TAAFFFTDATADADFFFFAAAFFDAATDDDFTFTDFFDTDAATATAAATTFDFATTDAADTDTDD
K9S19A001      12065KUTT                T KUTT                                                      PO BOX 416                    CLIFTON PARK        NY                 168                    B008    0416     01065529606042                0001A      0030190479500100000012065041616DTADATTFDDTDTTFATATFDFADDTADFATFTDTFFTDAFFTFDDFDDDDAAFFFDDDAFTTTF
K9S11A001      12095SMITH               DONALD R SMITH                                              PO BOX 24                     JOHNSTOWN           NY                 241                    B001    0024     01065529606270                0004A      0030190479500100000012095002424FTADDAAFFAFDTTAADFFADAFTTDAADFTATFATTDDTDFADDFDDATTFAAFAAATFDTTDF
K9S13A601      12167MCDOUGALL           ROSEMARIE MCDOUGALL                                         393 TAYLOR RD                 STAMFORD            NY                 938                    R001    1967     01065529606514                0197D      0030190479500100000012167196793FDTADAFDAFFTTAFTDDFDDTDFFTDFAAFTDFFFATDATDTTDATDTFAATFFFDDDDDAADA
K9S17A501      12203SMYTH               PAUL A SMYTH                                                13 AYRE DR                    ALBANY              NY                 130                    C012    3401     01065529606750                0051D     S0030190479500100000012203340113FFADFDDDDFAADTATATDDFDTTDATDFTAFFFFDTDDDADTFDDAFAAFADFFDTAFADTADF
K9S11A001      12303BEAVER              MICHAEL BEAVER                                              101 BENJAMIN ST               SCHENECTADY         NY                 019                    C014    4737     01065529606999                0093A     S0030190479500100000012303473701TTDTTFFDFTFFFATTFDATDTDFFFAATFDFDTFTFFATAADTFDTFFAAAFDTFFFATFDDDD
K9S17A501      12446HAALCK              HAROLD HAALCK                 HALS GUNSMITHING              241 OX BOW RD                 KERHONKSON          NY                 414                    R002    1120     01065529607235                0252A      0030190479500100000012446112041DFDTTTDFDTDFFTDTDFAADTDATATTFDDADATFTDDFDATDAFTFDTDAADTTTAAFAATFF
K9S18A201      12484SERRA               ERNEST F SERRA                                              397 CHESTNUT HILL RD          STONE RIDGE         NY                 971                    R002    5522     01065529607472                0162A      0030190479500100000012484552297TDFAATTFTTTTDADATTFTDTADFAAFDFFDADTFDDTTAFTFFTFAFFTTADDDTDATADDDD
K9S18A201      12528BENSON              DAVID W BENSON                LOT 5                         499 STATE ROUTE 299           HIGHLAND            NY                 050                    R004    2852     01065529607715                0185A      0030190479500100000012528285205FAAFAATAFDAAAFFATDTFTDAAATFTAAFATAAFFDTTDTDTDTAFTFAFFTDFADTTDDTTD
K9S14A301      12549COLI                GIULIO COLI                                                 601 BULLVILLE RD              MONTGOMERY          NY                 013                    R002    1815     01065529607952                0203A      0030190479500100000012549181501DTFFTAFADDDFATADTAATDFFFDDFFFFDFTAFATDDAFFDTTTFDDADADTFTDDFADFDDT
K9S14A301      12578LTD                 SAFARI OUTFITTERS LTD                                       2517 ROUTE 44                 SALT POINT          NY                 994                    R001    8016     01065529608193                0114A      0030190479500100000012578801699DDAFFDADFATTTDAFFFADFTDAFTFTDDFATFTDFTTDTTTATFADADDDFFFDTDFFTTDDT
K9S13A601      12701ROMANO              JOSEPH / ROSEMARIE ROMANO                                   12 VAN ETTEN RD               MONTICELLO          NY                 128                    R003    3636     01065529608428                1146A      0030190479500100000012701363612TDDDFATFTFTTDFATDFDDTATFFTAADFTDADDFFTDADAAFDDFATDATTFAFATFDTTAFF
K9S13A601      12780PULCINI             ALBERT B PULCINI                                            51 HOMEYER RD                 SPARROW BUSH        NY                 514                    H002    8301     01065529608665                0009D      0030190479500100000012780830151DADTFTDFDAFTDATFTAFTFAFFDDAATAAFFDTFADFTATDDFADTATFTTDTATADDFDDAF
K9S14A301      12831HOLCOMB             CHARLES HOLCOMB                                             101 SWEET RD                  GANSEVOORT          NY                 019                    R009    1644     01065529608908                0113A      0030190479500100000012831164401FTTAFTFTFTFDFDDFFFDDFADTTATDDTTAFDATTAFDATDDTDATFDADDTTTDATTDAATT
K9S12A901      12853WATERSTON           ERNEST J. WATERSTON                                         PO BOX 124                    NORTH CREEK         NY                 248                    B003    0124     01065529609149                0001A      0030190479500100000012853012424DTATDAATFAAFFFFFTDFDFFFDAFAADDTDDDFFATTFFFFAATDTDDATTAATDFTTDTTTT
K9S14A301      12914SMALLMAN            CAROLE SMALLMAN                                             2497 STATE ROUTE 95           BOMBAY              NY                 975                    R001    2019     01065529609386                0005A      0030190479500100000012914201997AFDFTDTTATADDADATDTFTAFAAATTFFDTFAFFADDTADFFFATFTTFFDTDATAAATFFAD
K9S19A001      12980RICHARDS            MICHAEL RICHARDS                                            473 HOWE RD                   ST REGIS FLS        NY                 732                    R001    3609     01065529609629                0263D      0030190479500100000012980360973DFDDTTATTDATTFFDAATFDADATFFDADATDAAFAFTFATFFADAFAADAFFFDTDFDTATFD
K9S12A901      13033SNODGRASS           JIM SNODGRASS                                               11535 STATE ROUTE 176         CATO                NY                 352                    R003    3368     01065529609866                0127A      0030190479500100000013033336835TAFFDTFAFDDTTAFDTTAADFFFTFFFFTDTTTTDTFFFFFFAATDFDAAATDFDDDDTDATDD
K9S13A601      13069SWICK               DAVID SWICK                                                 7 W 3RD ST N                  FULTON              NY                 073                    C001    1145     01065529610104                0010D      0030190479500100000013069114507ATADFATADDDADAFATFDDTDFFADDAFATFAFDFTAATTDFDFATFDAAATDFDATDDDTDDT
K9S13A601      13132MOREAU              RONALD M MOREAU                                             1283 COUNTY ROUTE 12          PENNELLVILLE        NY                 830                    R002    3268     01065529610340                0158D      0030190479500100000013132326883AFADDDFDDDTDTATTFAAAADDFAFFTADATDFFDDAFDTDAAFFDDAAAADFDFFADAAAAFF
K9S13A601      13208EMMONS JR           WILLIAM H EMMONS JR           APT 2                         814 N ALVORD ST APT 2         SYRACUSE            NY                 142                    C006    2016     01065529610570                0224A      0030190479500100000013208201614DTFFTTAADAFDAAADDFDFFTAFAAAAADATATADDFTAAFTADDAFDDFFFDAFDAAAAFTFT
K9S12A901      13316WASHBURN            WAYNE WASHBURN                                              2520 STATE ROUTE 69           CAMDEN              NY                 201                    R004    3730     01065529610813                0137A      0030190479500100000013316373020DADTFAAFATTAAFDTADTAFFAFAFDATFDFFDTFFFDAAADTFDFDFATDFDAFFDFATFDAF
K9S16A801      13357JONES               MR CRAIG F. JONES                                           369 W MAIN ST                 ILION               NY                 693                    C006    1426     01065529611054                0259D      0030190479500100000013357142669FDDTADFFTTFDDFFDAAFDTFAAATDDTTADDADDFDFDDDFFTFTFAFDADTFTTDTATATAT
K9S20A001      13431ARCURI              MR ANTHONY F. ARCURI                                        9705 STATE ROUTE 28           POLAND              NY                 052                    R001    2711     01065529611290                0146D      0030190479500100000013431271105DDFFTDDADAADTTDFADFTFDTATDAFTTAFDTAFAFDATFAFFTTFDDAFAATFFDTADFDFT
K9S14A301      13464LLOYD               GARY LLOYD                                                  294 COLE RD                   SMYRNA              NY                 942                    R001    2122     01065529611534                0148D      0030190479500100000013464212294AAADTDFFDDTFDDFAFDTTFATFTDFDDTFFADTTFTFFATTDDFTDFFDFTDDDATDTDFFTF
K9S13A601      13625CUDLIPP             RICHARD M CUDLIPP                                           140 COUNTY ROUTE 58           COLTON              NY                 405                    R002    3191     01065529611770                0005A      0030190479500100000013625319140TAFFTFFTADADATDFTFTDAAFDATFFATDFAAATTDDAFAATDDDATADTTADATTFATTATF
K9S14A301      13732AUSTIN              CLAYTON AUSTIN                                              1605 LONG CREEK RD            APALACHIN           NY                 050                    R004    2133     01065529612018                0075A      0030190479500100000013732213305DFDATFDDATTFDFDTDFFDADTFFDDDDDAADFTDTFFDTTFTATFFTFTFAFDFTDATTADTT
K9S18A201      13760CORNELL             CHERYL I /JAMES M CORNELL                                   2809 HALL ST                  ENDWELL             NY                 092                    C044    3324     01065529612255                0152A      0030190479500100000013760332409DFTTFADTDTADDAFDFTFDFDDAFDTFFTFTDADFAATTFDADFDAATAFADAAFDDTFAFTTD
K9S11A001      13820HUDAK               SCOTT HUDAK                                                 1054 GRANGE HALL RD           ONEONTA             NY                 548                    H064    7011     01065529612492                0063A      0030190479500100000013820701154TTFDTFAFDFDTFTDTATAADFATAAFFFFDDAFDDDTTFFFFTADTTTDFDTDTTFDAATAFAA
K9S11A001      13865BROWN               THOMAS BROWN                                                93 MOUNTAINVIEW DR            WINDSOR             NY                 930                    R003    2931     01065529612727                0281D      0030190479500100000013865293193FFATATFADTFFDDFDFFDAFATTFFATDDDFFAFTFDTAFAATFTAFFATATTDAFDFADFTTT
K9S19A001      14012SLABY               R SLABY                                                     1419 QUAKER RD                BARKER              NY                 193                    R002    9604     01065529612964                0034D      0030190479500100000014012960419AATATATADATDFTDDADTTTAAATDDDTFDDDFFATTDTTTFADAFDAAFDTDFAAAFTDFADF
K9S13A601      14047ORLOWSKI            RONALD A AND NANCY L ORLOWSKI                               7004 POTTER RD                DERBY               NY                 049                    R002    9101     01065529613200                0237A      0030190479500100000014047910104FTFTDDFAAAFAFAATTAATADAADTAFTDDDTAFDADDAAFTDFFFAAFFADTFAFFDFDFAFD
K9S19A001      14063KINNEY              JAMES KINNEY                                                9698 PORTER RD                FREDONIA            NY                                        R001             01065529613448                           0030190479500100000014063      DFTDADADFFTATTAFFTDADTDTFDTTAFTAAATTADDFAFDFTTDFFFAATFAAFAFADAFFA
K9S19A001      14086NOWAK               ALAN E NOWAK                                                61 GARFIELD ST                LANCASTER           NY                 618                    C002    2428     01065529613685                0087A      0030190479500100000014086242861AADFATFDDADTTDFFDFTADDFDTFTDAFFFTDTTTDTFFFFATTADTTTTFATTDDADFADTF
K9S18A201      14120KENDZIORA           BILL KENDZIORA                                              547 EUCLID AVE                N TONAWANDA         NY                 471                    C025    4204     01065529613928                0166A      0030190479500100000014120420447DFFATFFAADDTDAATDDAAFDTADDDFATFAFDTFFTTDFAADATFAFTAFDFTTFFDTADFTT
K9S12A901      14145STREICHER           SHERALEE STREICHER                                          454 BLOECHER RD               STRYKERSVILLE       NY                 541                    R001    9547     01065529614169                0258A      0030190479500100000014145954754FATTTFDTFTFTTTDTFDFAATTTDFDTADTAFFFATFAFFTAFTTFFAADAAATDAATDDDTDT
K9S16A801      14217MYERS               RONALD MYERS                                                201 HAMPTON PKWY              KENMORE             NY                 010                    C023    1256     01065529614400                0107A      0030190479500100000014217125601FFTADDATAFDFFDFDTDFTFAADFFATFTADFAFTFAAATTATDDFDTDAAFFTATTFAAATDD
K9S18A201      14227MARK P URBAN        MARK P URBAN                                                111 JANE DR                   BUFFALO             NY                 110                    C004    1911     01065529614649                0101A      0030190479500100000014227191111AFDDFATDFAAATATAADTFDADFFDDTDAFDAAAFTATDDATTTTDATFFFTDFDADFTFAADA
K9S14A301      14424FLETCHER            JERRY FLETCHER                                              6272 COUNTY ROAD 32           CANANDAIGUA         NY                 727                    R012    9352     01065529614878                0054A      0030190479500100000014424935272DTADDFTATDTFTTFFDAAFTFTFAAADAAFTDDFFATTDDFADTAADFDDTDFFTFAFAFAAAA
K9S11A001      14454FLINT               GENE FLINT                                                  PO BOX 93                     GENESEO             NY                 938                    B002    0093     01065529615114                0001A      0030190479500100000014454009393DAAFFFFTDTDDDTFATFTTFTAFDDDDDTFTTFFDTFATDTDADADFFTFAATTFTTDAFTTDA
K9S12A901      14487GASCON              ROBERT GASCON                                               6570 STONE HILL RD            LIVONIA             NY                 701                    R002    9739     01065529615350                0156A      0030190479500100000014487973970FTAAFTDTDFAFDFTTTTATDTADFAFFDADDTFDAATFDFFADAFTAADFTFFDAFFDAATTAD
K9S18A201      14527STEFFEN             FRANKLIN J STEFFEN                                          2576 FERGUSON CORNERS RD      PENN YAN            NY                 764                    R004    9131     01065529615599                0117D      0030190479500100000014527913176ADDDFTDDTFTFTFTADDTTDTTTTDDTAAFDFDFFFDTDDDDFAAAAFFDTTFFAFFADDAFTT
K9S18A201      14580IRWIN               GARY L IRWIN                                                480 PINEVIEW DR               WEBSTER             NY                 807                    C012    1123     01065529615830                0243D      0030190479500100000014580112380FFDDFTADTFDFADFDDAATFDDTTFTFTDDFFFTDAAATFDATDADTTTFTFADFDFFTDDDTF
K9S12A901      14618ODORISI             MARC ODORISI                                                6 OLD LANDMARK DR             ROCHESTER           NY                 068                    C003    3517     01065529616072                0111D      0030190479500100000014618351706TDFFADAATTTDDFFAFDDATTDTDTTTFFFATAFTFAAFFTFATFTFFFTFTDDTDFDFDTFAF
K9S13A601      14701PADDOCK             STEVEN E PADDOCK                                            2957 DONELSON RD              JAMESTOWN           NY                 574                    R003    9516     01065529616315                0125A      0030190479500100000014701951657FTATAAFFDTDAAFADADFADDADAFTFDFTFTATTADFDFDAAAAFTATDDTATFATAADAADD
K9S12A901      14742COREY               KENNETH J COREY               PO BOX 117                    3707 PLEASANT AVE.            GREENHURST          NY                 175                    B003    0117     01065529616552                0003A      0030190479500100000014742011717FTTFATFTTDTAATTFDTTFDFTDAFFFTAAADDFFDDFDFADDTATDDFADADFTFAFFDTFFT
K9S17A501      14810HOAD                CLOYSE HOAD                                                 7587 CAMPBELL CREEK RD        BATH                NY                 875                    R003    7612     01065529616790                0389A      0030190479500100000014810761287AAFTDFAATDDAAATFDDFTAFFDFAFFATFDATDATDTTFDFTDDATAADTDDAFAADFTDFTT
K9S19A001      14850BOBKOFF             VLADMIR BOBKOFF                                             627 CAYUGA HEIGHTS RD         ITHACA              NY                 273                    C044    1423     01065529617028                0004A      0030190479500100000014850142327FFADATTFADDTTTFADTTFDDFTDATDDTDDTDTTADFFTDATTTAAAFDATATTATTDAAFTF
K9S19A001      14882CRAIG C CARD        CRAIG C CARD                                                54 DUBLIN RD                  LANSING             NY                 548                    R011    8840     01065529617265                0055A      0030190479500100000014882884054FDAAFDAFAAFTAFDDFTTTAATFTFAFFATFTTTFATTTAATDDAADAFTTATTFFATDADFAD
K9S12A901      15001SVEDOK              THOMAS SVEDOK                                               922 COLUMBUS DR               ALIQUIPPA           PA                 226                    C011    4018     01065529617508                0111A      0030190479500100000015001401822FTTADAFTADFAAATDTDAFDAFFADAFAFATDDDTFDTAFDAATAATTADDDTADFDFDADTTT
K9S19A001      15025BUCHNER             DAVID A BUCHNER                                             1615 JEFFERSON RIDGE DR       CLAIRTON            PA                 154                    R001    3428     01065529617745                0116A      0030190479500100000015025342815DDAAFADFTTDAADDDDDTFTTFTDTAAAFDAFDDAAAATTDDDTFTTTDADTFTDATDAFDAAF
K9S17A501      15050HOBBS               JOHN L. HOBBS                                               PO BOX 112                    HOOKSTOWN           PA                 122                    B002    0112     01065529617982                0001A      0030190479500100000015050011212AFAFAFDTADATTFTTDDFFADTFDFDDDTADDADAATDDTDAFFADFADTFATTADFAFTTFTA
K9S18A201      15068BRANDT              DONALD BRANDT                                               4321 WACO DR                  NEW KENSINGTN       PA                 211                    C026    6839     01065529618229                0090D      0030190479500100000015068683921FTFATTTAAAFAATFDDDFDTAFADDAFTAFTAFDFDTDAFFADTTDDDTTDTDFTAFATDDDAT
K9S12A901      15089BACKRIK             JOHN BACKRIK                                                111 S 6TH ST                  WEST NEWTON         PA                 112                    C001    1327     01065529618466                0151A      0030190479500100000015089132711AADAFFFFTDATTTFAAFFTFATTFFTADTDDTATTTFADFFAADTAADATFDFFFFDAAFAFDF
K9S19A001      15120HVWALT              PATRICK HVWALT                                              2451 DEWEY ST                 HOMESTEAD           PA                 518                    C013    2609     01065529618709                0117D      0030190479500100000015120260951ADFDFATAFTAFDDFTDAAFTAFDAFFTTFDAFFTDFAAFTAFFFFDTFTDTTFFTAFATTFDFD
K9S19A001      15145ORTENZO             JOSEPH ORTENZO                                              631 BEAVER AVE                TURTLE CREEK        PA                 315                    C004    1301     01065529618946                0008A      0030190479500100000015145130131FDTFDDDAAFFATDTAATDFDTTTATTADTATDDAAFFDFDAFATTAATDTADAFDTTDAAAFTF
K9S14A301      15206DUNCAN              JEFFREY DUNCAN                                              1816 DUFFIELD ST              PITTSBURGH          PA                 167                    C060    1056     01065529619179                0049A      0030190479500100000015206105616TADDATTDTFFTAADFDDFDFTDFDTTDAFFFAAAFTTAAAADFFDTTFTFTDDFFTFTDFFAAD
K9S13A601      15212MCNAMARA            MICHAEL F MCNAMARA                                          3207 CENTRAL AVE              PITTSBURGH          PA                 074                    C021    2006     01065529619410                0157D      0030190479500100000015212200607FDTDTAFFDTDTDFDAAATFDFFTAAAFTAFFTDTDDFADTTFAFDTTATADTFFTFDDFFFTFA
K9S19A001      15228YOUNG               JOHN W YOUNG                                                129 SHADY DR W                PITTSBURGH          PA                 293                    C005    1430     01065529619659                0118D      0030190479500100000015228143029FFTTDDTTAFFFADDFFFATFTTTDTATFDFADATDDTFTDTFFTTAFTDFAFADATTTDTAFFT
K9S13A601      15239MEYER               JOHN MEYER                                                  105 PINTO DR                  PITTSBURGH          PA                 055                    C043    1351     01065529619896                0112D      0030190479500100000015239135105TADDFTTAADFAFTAFFFFTFFATADFAFFTDFTATFTTATAATDTFTFDTTTTTFTATAAFATT
K9S12A901      15317CONDON              GARY CONDON                                                 1045 MEADOWBROOK DR           CANONSBURG          PA                 456                    R004    5012     01065529620134                0135D      0030190479500100000015317501245FDDDDFDATAFTTTTTAFDFAADATFFFDFFFTFDTADDDFFDFADTDFATTTTTDTFTTFTTFF
K9S19A001      15367CAMPBELL            WILLIAM P CAMPBELL                                          459 VENETIA RD                VENETIA             PA                 593                    R006    1334     01065529620370                0041A      0030190479500100000015367133459TFAAATTFTFFDADFFDTFDTFAATAATTTFATTADATTTFAAFFADFFADFAFFFFDTDFDTTF
K9S18A201      15466KOPP                JOHN KOPP                                                   PO BOX 186                    NEWELL              PA                 869                    B003    0186     01065529620614                0001A      0030190479500100000015466018686ADTDTTFFTTTTFFADATDTFDDAAFAFTADDAFDFFAADTDAAAFDDDTTDFTTAFTTFFDTDD
K9S11A001      15522CESSNA              THOMAS B CESSNA               STE 22                        3691 BUSINESS 220             BEDFORD             PA                 225                    R005    1131     01065529620850                0177A      0030190479500100000015522113122FTADTAFATATATAFTFDAFTDADAFDTTAFAAFAATAADFTFDFFATAATTFFTFADTADTTDD
K9S17A501      15557SANNER              MR LYNN SANNER                                              3338 MARKLETON SCHOOL RD      ROCKWOOD            PA                 386                    R002    6518     01065529621092                0381A     S0030190479500100000015557651838AADDFDTATFFTDTTDDDADDADTDAFTDDDTTTDDAAFAFDFTFFDFDTDADATADDATAFAAD
K9S14A302      15637CLARK               BRAD CLARK                                                  114 DUTCHTOWN RD              HERMINIE            PA                 143                    C002    1702     01065529621327                0062A     M0030190479500100000015637170214DFAFAFFDTAAFTDAATDFDDFFTTADTAFTDTDDDTFTFTDAFFFFFATDFTAFDFTAFFAFTT
K9S19A001      15650BLECKLEY            WILLIAM BLECKLEY                                            759 MARGUERITE RD             LATROBE             PA                 595                    R003    5171     01065529621564                0427A      0030190479500100000015650517159ADATFTFTTATTATDDATTDAADFDDDAFTDFAATFTAAATTFFTFFDDFATTDAFDAATFDDTD
K9S17A501      15670HOLLICK             GEORGE G HOLLICK                                            240 MOUNT CARMEL RD           NEW ALEXANDRI       PA                 408                    R001    3510     01065529621807                0279A     S0030190479500100000015670351040ATDADTAFDFDDADTTADDFATFTAFAAFAFDDDAFDFDDDTFTTFDDATTDDTFTFDTDFTTAT
K9S11A001      15742KALUS               ANDREW KALUS                                                24905 ROUTE 286 HWY E         GLEN CAMPBELL       PA                 055                    R001    8102     01065529622048                0038A      0030190479500100000015742810205FDFTFDFATFTTTATDTAADATADFATFAAATFDTTFFTFFAATTDTDFTFDDADAATAFFFTDT
K9S19A001      15834PLEAK               HORACE PLEAK                                                20 E 6TH ST                   EMPORIUM            PA                 204                    C002    1480     01065529622285                0056A      0030190479500100000015834148020TAFATAFTTTADFTFTTDAATTTTADATADDDAADTDFATFTADDFAFAFAFFDATDDTDDTDTA
K9S14A301      15866KNARR               ROBERT E KNARR                                              237 MAIN ST                   TROUTVILLE          PA                 374                    R001    5014     01065529622528                0002D      0030190479500100000015866501437DDDTDTDAFDDATTFDAADDFDFDFADFDFDADFTTTATFAFDTAFTDTFDTAFFDTTTFDAATF
K9S19A001      15931EDWARDS             THOMAS EDWARDS                                              677 REED HALL RD              EBENSBURG           PA                 779                    R002    8514     01065529622765                0150A     S0030190479500100000015931851477DDFDDTFFADDADTDFAFDFFFDADTTTDAFTTDFTDDTDDDATTDDDFFDDTATDFTAAATTFT
K9S11A001      16025KELLY               PAUL KELLY                                                  569 CHERRY RD                 CHICORA             PA                 697                    R003    2723     01065529623000                0214D     S0030190479500100000016025272369AAAFTDTFDATDFFAFFDTFATTFTATDDTFTDATATTFAFTADTFTDAADFDATAATTDADAFT
K9S19A001      16059SOERGEL             MR RAY SOERGEL                                              110 CHERRY HILL LN            VALENCIA            PA                 103                    R003    2102     01065529623249                0271A      0030190479500100000016059210210FADTATTATDDDTDFFTADFFFFFTTFDFATAADTFATDFADAFAFTTTFDTFFDADATAFDFDA
K9S15A001      16117BERNARDI            STEVE J BERNARDI                                            277 PORTERSVILLE ROAD         ELLWOOD CITY        PA                 775                    C007    2418     01065529623478                0094A      0030190479500100000016117241877FFDTDDDFDAATFFFFTTFFAFDAADADFDDFATFFTFFTFFDAADATDAAAATTAAADTDDFFD
K9S13A601      16146BONDARENKO JR       GEORGE & DONNA BONDARENKO JR                                583 S OAKLAND AVE             SHARON              PA                 839                    C016    4053     01065529623710                0153D      0030190479500100000016146405383ADTFATDDFTTDTTAATADDDATTDFDTTFAADFDDDFDDTAFADDAADTTDFTFTFFTTATDDT
K9S18A201      16218BOITNOTT            STEVEN BOITNOTT                                             723 EAST BRADY RD             COWANSVILLE         PA                 236                    R001    1217     01065529623958                0098A      0030190479500100000016218121723ATFFDAFTAATTDFDAAFFFADAADTAFFADFADTTATFFTDTFAAAFTTFAAAAFADDTFDDDT
K9S12A901      16319STINE               ROBERT STINE                                                291 CARNES SCHOOL RD          CRANBERRY           PA                 915                    R001    3903     01065529624199                0640A      0030190479500100000016319390391FTFAFATDFTTDDDDADADFADTTTTATAFFDTFFTTFTDAAFTAADFDTFFADAFFFDFDFTDA
K9S14A301      16347JERMAN              JOHN JERMAN                                                 211 CRARY AVE                 SHEFFIELD           PA                                        H001             01065529624430                           0030190479500100000016347      TTFTDATDTFADTFATAFAATFDADADDDAFDTDFDFTFDDFTTFFFAADFFADAATATTDDADD
K9S18A201      16373ORR                 KEVIN C ORR                                                 3280 BELL RD                  EMLENTON            PA                 808                    R003    6918     01065529624679                0633A      0030190479500100000016373691880DDFDTDDFADFAATDTFAATADFDFDDAAFFDTFDDDTFFFATATAADFDTDAADFFTTFTFATT
K9S12A901      16428AIRHART             J J AIRHART                                                 12336 FINN RD                 NORTH EAST          PA                 361                    R003    6102     01065529624910                0193A      0030190479500100000016428610236ATDFADTFFTFAATFTDFFTATDAFDTDFFDFAFFDFDDFAAFFTFATDTADDATFAFFDADDDD
K9S18A201      16506MAKOSKE             THEODORE MAKOSKE                                            2300 LAKEVIEW DR              ERIE                PA                 007                    C043    6405     01065529625152                0094A      0030190479500100000016506640500DFAFFDDDATAFFTATDFATAFADATDTTTFFDATAATAAAADTDDADFTDTFAADFFFDDTDDD
K9S17A501      16602BROWN               TIMOTHY BROWN                                               329 E 6TH AVE                 ALTOONA             PA                 299                    C007    2751     01065529625390                0089A      0030190479500100000016602275129DDADTTTTDTTTFTFFTADFFAFFTFDDDDTTDADDFTTATAFDATDAAAATTTFTAADDFFFAA
K9S18A201      16648GLASS               D R GLASS                                                   808 JONES ST                  HOLLIDAYSBURG       PA                 086                    C002    2144     01065529625624                0015D      0030190479500100000016648214408FDFDAFTFDFFFDFFFDATTTTTTDDDTDDDTTATFTTTTTTATDFDAAAFFAATTTDAFDTFFT
K9S13A601      16674NEIL                PATRICIA A. NEIL                                            151 HOUCK RD                  ROBERTSDALE         PA                 512                    H001    8910     01065529625860                0153A      0030190479500100000016674891051FFFDAATTFFTTFTDTAAADFATFAFAAFFFTADTAAFADTFDFAAADFFTTDAFAFAAFTFFTF
K9S17A501      16735SCHUSTER            GEORGE SCHUSTER SR                                          527 BAYARD ST                 KANE                PA                 277                    C001    1407     01065529626108                0073A      0030190479500100000016735140727FAFDAFTAFAADAAAFTFAATTATADFFDFTFAFFDFDDFTTTTATDFDDFDFFATTATTATDAF
K9S13A601      16832REED                JOHN B/JANET J REED           PO BOX 95                     449 TUNNEL RD                 COBURN              PA                 952                    B001    0095     01065529626345                0001A      0030190479500100000016832009595FAATTFFDFTDATFDFATDTATTDTTADTTDATTADAAFTFAAADDDDFTDDFAATAFTTTTAAF
K9S18A201      16901HENNEMAN            ROBERT HENNEMAN                                             1835 ROUND TOP RD             WELLSBORO           PA                 356                    R003    6995     01065529626582                0079A      0030190479500100000016901699535DFTFAFFTFDFFDDATATDFDAAATADAAFFTTDDTAFTDFFTFDFFDDDFFTADTFDAFTFTAT
K9S19A001      16946SHOVER              JOHN W SHOVER                                               14 BURROWS HOLLOW RD          TIOGA               PA                 146                    R002    8429     01065529626825                0193A     S0030190479500100000016946842914FTFATADFFDDFDFFADTFFFATTFTDFATTDTTFTDDFAADADFFDADFTTFAAFFDTTTDTAA
K9S13A601      17015POTTER              GERALD W/CHERIE POTTER                                      206 WOODLAWN LN               CARLISLE            PA                 065                    R013    4353     01065529627066                0147A      0030190479500100000017015435306DDFTFATAATAFDAATADDFAAFAFATAFTDDAATDDATTTTDFFFFFTADDDFTFFAFDAFFFA
K9S15A001      17022LANCO TACTICAL LLC  LANCO TACTICAL LLC                                          495 MARK DR                   ELIZABETHTOWN       PA                 957                    R005    9404     01065529627309                0224A      0030190479500100000017022940495ATATFFFTADTDAAFFTFAFTAFFADDTAFTFDFTAAATDAFFDTFADDAFDTATFFTDDTDFAT
K9S13A601      17042PAUL                CLARENCE A / BARB PAUL                                      1705 HICKORY DR               LEBANON             PA                 051                    R008    9083     01065529627546                0035A      0030190479500100000017042908305TATFADFDATDDADDFATFTTFDATATDDFDFDFTATTFFFAFDTFDDDFAFFAATTFTDFATTT
K9S13A601      17048HOFFMAN             KENNETH HOFFMAN                                             5574 STATE ROUTE 209          LYKENS              PA                 746                    R001    8410     01065529627775                0037A      0030190479500100000017048841074AAFFDDDATDTFFFADDTADDFTDFADDAFFAFDDDDFTFTADATAADTTAFFADDDADDFAADD
K9S13A601      17057DECHANT             WILLIAM DECHANT                                             1364 PHEASANT RUN RD          MIDDLETOWN          PA                 647                    R002    5972     01065529628010                0039A      0030190479500100000017057597264DFTDDTDTFTTADDDADTTFAFFFDTTTADATTAATAATTAFDTFTAATFTAFAFDAFDAFAAAA
K9S14A301      17070RENNINGER           RONALD R RENNINGER                                          1105 BRIDGE ST FL 2           NEW CUMBERLAND      PA                 056                    C012    1634     01065529628259                0004D      0030190479500100000017070163405TFDTTFTFTAFTFDFFTADATTTFFATTFAFAFDTDDDFDDAFAAFATAFFFAFATTADFTADAD
K9S17A501      17099GRIFFITH            MR MICHAEL GRIFFITH                                         PO BOX 84                     YEAGERTOWN          PA                 840                    B001    0084     01065529628496                0001A      0030190479500100000017099008484DFAAFFFFTDTDDTATFTAFDAFATDDDTFDFDDTTDTDFFTFTADTAATFATDFADTADFAAAD
K9S12A901      17201BELANGER            LEO BELANGER                                                6 CAMBRIDGE CT                CHAMBERSBURG        PA                 066                    R011    8342     01065529628739                0107A      0030190479500100000017201834206AAFTFADTDDDFATFFFDDAADADDFDAATDATADTDFTTFADTDFADTTATDFADAAADTTAAA
K9S19A001      17222TILLOU              NELSON C TILLOU                                             5560 FAIRWAY DR W             FAYETTEVILLE        PA                 608                    R004    9643     01065529628976                0288A      0030190479500100000017222964360TFTDFADTTATFAFTDADFDADTTATFTDTAFTATDFAAADDFTDDTDAFTTAADTDFFAFTADA
K9S19A001      17241FISCHER             MR ROBERT FISCHER                                           853 DOUBLING GAP RD           NEWVILLE            PA                 533                    R003    9753     01065529629212                0177A      0030190479500100000017241975353DFTTATFDTTFAADADTFADATFTDFAATDTADADATAFAFAFDFDFTTAFDDAFTFFAATTDDF
K9S17A501      17268RUDYK               CHRISTOPHER RUDYK                                           10936 GEHR RD                 WAYNESBORO          PA                 365                    R006    9111     01065529629450                0129A      0030190479500100000017268911136FADTADTDADFDATAFDADTTTDDATAADAFAFFADTTDDTFFFTDTTTTATFAAFDDDDAATDA
K9S17A501      17315WATSON              PERRY WATSON                                                5400 HARMONY GROVE RD         DOVER               PA                 006                    R013    3022     01065529629697                0027A     S0030190479500100000017315302200DAAATADDTTTAATTDDFAFDFFFDFFTAFFAFFATDADDDFTDTFDDTTDDTFTFDTATAFFFF
K9S15A001      17325TRIPWIRE OPERATIONS TRIPWIRE OPERATIONS GROUP LLP                               P O BOX 4026                  GETTYSBURG          PA                 262                    B009    4026     01065529629920                0002A      0030190479500100000017325402626ADTTATTDADDDTTDTTFATFDTFATDTTTAADTFATDTTDDFTFAFATTFAAAFTTDATFDTDA
K9S18A201      17331TEAL                JAMES TEAL                                                  184 FAIRVIEW DR               HANOVER             PA                 843                    R013    8435     01065529630164                0281D      0030190479500100000017331843584FATAADDTFADFADFFAFFDTFFAAAAAAFTDDDFAATADFFFDADFTFTDTTTAAAFFTDATAD
K9S17A501      17356GRIM                GEORGE M GRIM                                               5402 HERBST RD                RED LION            PA                 027                    R003    8353     01065529630407                0028D      0030190479500100000017356835302FDFTAFFADDATTAAATDAFATAAADFAFDDTTAFFAFFTFAFFFTAFFDTFAFADADAAFTTTT
K9S12A901      17404HASSLER             DAVE HASSLER                                                2046 LEONARD ST               YORK                PA                                        C027             01065529630644                           0030190479500100000017404      DATFFDDDATADFFTFADFAAAATFADDTTTDFAAFFAFTFFDFTTTDADFTTDDDTFFAFTFDT
K9S11A001      17512COLEBROOK SUPPLY    COLEBROOK SUPPLY                                            1040 PROSPECT RD              COLUMBIA            PA                 409                    R004    8931     01065529630880                0027D      0030190479500100000017512893140FATFTTADDDATTFDTTTATTAFFDAFTAADTTDTTTDDDDDDDAAAFTFFAFFAFFFFFDFDDD
K9S19A001      17543BARR                KEVIN BARR                                                  246 ZARTMAN MILL RD           LITITZ              PA                 463                    R009    9404     01065529631128                0137D      0030190479500100000017543940446FDFDDTADTATTFDTFAFDFAATFAFAFFDTAFADFTAATFTAFFATDFADTTFTATDAAFADDD
K9S14A301      17569SNYDER              WILLIAM SNYDER                                              145 S BLAINSPORT RD           REINHOLDS           PA                 452                    R001    9714     01065529631365                0014A      0030190479500100000017569971445AAATAFFTFDDDADAFADFFTADTDTDAFFFDFFAADTAFTATATTFDFATDFTDDAAFDDDTTF
K9S14A301      17701ELLIS               JOHN ELLIS                                                  1783 MEMORIAL AVE             WILLIAMSPORT        PA                 833                    C025    1559     01065529631608                0143A      0030190479500100000017701155983ATDFTFDTFFDTADAFATTAADTDATFADDATTDTDDTDFDAADTATTDDTDADAAATAATFFDD
K9S17A501      17747GENTZEL             VIVIAN M GENTZEL                                            1727 BULL RUN RD              LOGANTON            PA                 271                    R002    9474     01065529631845                0309D      0030190479500100000017747947427DDFAFTDDTTDDAFTFDATFFFTFAFTFATTDFTDTDFFFTADAAAFDDATTFAFTFDTDDFDAA
K9S14A301      17758CRAFT               JACK CRAFT                                                  RR 1 BOX 7166                 MUNCY VALLEY        PA                 034                    R001    5361     01065529632078                0814A      0030190479500100000017758536103TDAATTTFTADFDDFDFDDFADFDTATAFDDTFFFDADAFFTFATADATDAADDDADDFAFDDFF
K9S18A201      17821OSHETSKI            ROBERT OSHETSKI                                             313 FERRY ST                  DANVILLE            PA                 132                    C004    1923     01065529632310                0003A      0030190479500100000017821192313TDFATTDADDDDTADFTDDAATDTDTTFFDFDFFTAFDFFTDDTATTAFDAAADTADDAAFFTAD
K9S17A501      17851DAVIS               RONALD L DAVIS                                              39 S HICKORY ST               MOUNT CARMEL        PA                 396                    C004    2116     01065529632558                0033D      0030190479500100000017851211639FAAATFDTFTTFDFTAAATADDAFFTDADATDDFDTAAATTTTTDFFFFTTADFAFTDTDTTDAD
K9S11A001      17901CURRAN              JAMES J CURRAN JR                                           1401 OAK RD                   POTTSVILLE          PA                 010                    C012    3323     01065529632795                0055A      0030190479500100000017901332301DTTTTFAFFAFDTTFAFADATTFFTATFAADATTDFATDADATTFDDAADDFDDFDAADAFAAAF
K9S14A301      17961WALBORN             JONATHAN WALBORN                                            PO BOX 379                    ORWIGSBURG          PA                 791                    B004    0379     01065529633030                0001A      0030190479500100000017961037979TAFADTAAAFTDFTFDAAADAFTADAFFADDDADTFFTFFAFAFTDDTADFDDAAAAADDFFAAT
K9S18A201      18017MUTH                GARY MUTH                                                   1615 LANSDALE AVE             BETHLEHEM           PA                 156                    C071    4151     01065529633279                0049D      0030190479500100000018017415115TFFTTDFAADTDTTTFTAAFDTATDTAFAFDFDADADTDTTDADDTADTFATFDDDDTFADTAAT
K9S13A601      18042PILZ                EDWARD PILZ                                                 660 BERGER RD                 EASTON              PA                 607                    R004    9517     01065529633510                0073D      0030190479500100000018042951760FDDADTAAFFTDFFTFDTATFTAFTTTDDDDFAADDDTDFDFFAAFADATADDFAATFADDTAAF
K9S20A001      18062HUBER               ROBERT HUBER                                                130 MOUNTAIN VILLAGE DR       MACUNGIE            PA                 307                    R001    9257     01065529633759                0007A      0030190479500100000018062925730FDFFAATFATFDFATAAATFFAATFFFAFDFTAFDTATADFADATTAAADFFATAAFDDAAFDAF
K9S11A001      18072SCHELLHAMMER        ED SCHELLHAMMER                                             PO BOX 8                      PEN ARGYL           PA                 086                    B001    0008     01065529633996                0001A      0030190479500100000018072000808TFTDFFDTTFFFTDFFFFFTDFAFDATFAFDFATATDTTAFTATFATTFFTTAFDDTAAAFTDAA
K9S18A201      18104SMITH               ROBERT N SMITH                                              4261 MANOR DR                 ALLENTOWN           PA                 617                    C081    4413     01065529634224                0042A      0030190479500100000018104441361FTDTTTDADATTATFTFFATADFDATADTTATADDTFADFFTADTFAAATTAAFFFDAFTFFFFT
K9S11A001      18224ONDISH              BILL ONDISH                                                 235 SANDY VALLEY RD           FREELAND            PA                 356                    R001    3150     01065529634460                0693A      0030190479500100000018224315035DTAAFFFFTFADAADDFTAFADDDADDTAAFATTFTFDDDDFFTATFTTTTDDFDAFTFAFFAFF
K9S14A301      18255OSMAN               CURTIS OSMAN                                                105 HEMLOCK ALY               WEATHERLY           PA                                                         01065529634704                           0030190479500100000018255      DTFTTADTTTFTTFFTFFDATAFADTDDTATDTDTFDTFDDDDTDFFAADAAATTFTAFTADFFA
K9S13A601      18336SMITH               ELLSWORTH SMITH                                             148 MOUNTAIN AVE              MATAMORAS           PA                 480                    H078    2203     01065529634940                0128D      0030190479500100000018336220348AAATTFAATAAFTFFTFTDDTDFAAADTFFATTTDAADTFFDFTDATAFDFADFFFFADTATAFF
K9S18A201      18360CHAPLAR             STEVEN CHAPLAR                                              1301 KING ST                  STROUDSBURG         PA                 018                    C007    2623     01065529635182                0101A      0030190479500100000018360262301TFTDDDTDTFTDTDTTFTTTTTFFFFDTAFDDFTFAFFFFFTFFFAAATFTATFDFFDFADADAT
K9S14A302      18424EVANS               WILLIAM J EVANS                                             HC 1 BOX 129A                 GOULDSBORO          PA                 295                    H001    9312     01065529635425                0220A     M0030190479500100000018424931229DAAFDDTADDADTFATTDAATADFDTTDTAFADTFFDATFTTFDDFFATDAFATFAADADFADAF
K9S12A901      18438GAVULA              BERNARD M GAVULA                                            10 COVE POINT CIRCLE          LAKEVILLE           PA                 104                    H001    6780     01065529635662                0518A      0030190479500100000018438678010AFFADTATTDTFFTDFFATDTFFDDAFDAAADFADTFDTAAFATFTDTATDTDAATTDAFTATTT
K9S13A601      18507KOZY                ROBERT KOZY                                                 804 HOLLENBACK ST             MOOSIC              PA                 049                    C096    1618     01065529635905                0102D      0030190479500100000018507161804TAFAADATDDDTADFDATDATDATDATFDFTADFFTTADAFTFAFATTTTTTFTDADTTDDAFAA
K9S15A001      18632PEROZZI             DUANE R PEROZZI                                             175 YAVORSKI ROAD             MILDRED             PA                 753                    R001    9006     01065529636146                0023A      0030190479500100000018632900675TFATTAADFTDATFFADAATFTFTFADATDAFDFDFTTTFTDFTTDDADDDADFTADDADTDDDF
K9S18A201      18655LEIBENSPERGER       C V LEIBENSPERGER                                           1145 BETHEL HILL RD           SHICKSHINNY         PA                 451                    R002    3705     01065529636375                0148D      0030190479500100000018655370545DTATTTDTAAFFATTDTDATFFADATTTADDFADFFDTAAAAAFTFDDAATTTDFAFDFDDAFTT
K9S12A901      18709KELLER              JAMES KELLER                                                197 MAIN STREET               LUZERNE             PA                 978                    C095    1244     01065529636618                0041A      0030190479500100000018709124497TAADDADTTAAFTFATATATAADATFDFADTTDFTDAFDDFTTTTTFFAAFATFDAFTDADFFFA
K9S18A201      18840MC GETTIGAN         JAMES MC GETTIGAN             RR 1                          BOX 114A                      SAYRE               PA                 146                    R001    9757     01065529636855                0132A      0030190479500100000018840975714DFTDTTTFAFTDTDAADAFADTFFDTTATDTFDAAAFTAFTTTDDDTADFDFTDTTFTTFTTAAF
K9S13A601      18914ORR                 LOIS / ROY ORR                                              1271 TIMBER LN                CHALFONT            PA                 716                    R001    3433     01065529637096                0080A      0030190479500100000018914343371DDAFAFATFFAAAADFTDAFATDATTTDDFADFDATAATADFATAFDTTFDDFTFAFADTDFAFD
K9S11A001      18947PRIETO              JAMES J PRIETO JR                                           12 BRICK CHURCH RD            PIPERSVILLE         PA                 122                    R001    9313     01065529637339                0071A      0030190479500100000018947931312DDFTTTTADDAFFDAFDTFATFDFFDFATDTFTDADDFDFFFDAAAFFFFTAADFATAADTFTTA
K9S19A001      18966WALLIN              MARK WALLIN                                                 122 HEATHER VALLEY RD         HOLLAND             PA                 227                    C038    2629     01065529637576                0096D      0030190479500100000018966262922AAFFADDDAFFDTDDAAADDAFDATAAFTFAADAFFFDFTADFTDTTTFAFTFTTDTFDAATTFD
K9S18A201      19006PORYZEES            C PORYZEES                                                  3533 ORCHARD RD               HUNTINGDON VY       PA                 338                    C014    3232     01065529637819                0066A      0030190479500100000019006323233DDAFTAAAATTTAADFTTFDTAADFTFTTDATTDFTTTDDTTFDAFFFAADFAFDAAFDDDDDAF
K9S18A201      19020REIF                KEN REIF                                                    6340 MUSKET CT                BENSALEM            PA                 400                    C048    1913     01065529638050                0329A      0030190479500100000019020191340AATTDFDTAAADTTDTTFFTFFAATAAFDAATFAAFAFTTTADDDDDTATDDATADDATATADDA
K9S11A001      19038LUDWIG'S ANTIQUE    LUDWIG'S ANTIQUES                                           221 W GLENSIDE AVE            GLENSIDE            PA                 218                    C010    3311     01065529638297                0012A      0030190479500100000019038331121TAATADADTDDDTFDTDFTTADTDTFDAAFADDTATDFTTDATFDFATFDDDADTTAFDTDADAA
K9S12A901      19054KOLEDA              JOHN KOLEDA                                                 55 TWIN LEAF LN               LEVITTOWN           PA                 554                    C004    2221     01065529638520                0020A      0030190479500100000019054222155FADDAFATAAFATFDTTDAFFDTFTTFTFFDTDTFTAFFADFFDDDTTFATDFFADDATTATADT
K9S19A001      19067HUGHES              DAVID HUGHES                                                2 SHELLEY LN                  YARDLEY             PA                 023                    C025    7320     01065529638769                0038A      0030190479500100000019067732002FAFFFFAAFTAATAFTTDTDDTDDATDTFTDFAFTAATFDTDAADATFAAAFFDTFFATFAAFFT
K9S19A001      19087BURRUS              JAMES BURRUS                                                640 TIMBER DR                 WAYNE               PA                 402                    C015    2359     01065529639005                0064A      0030190479500100000019087235940FTFDFDDAAFDDTDTATDTFTFDAAATFTTFTATFFDDFDFTFAFTDATFFATTFTAAFTFTFTA
K9S12A901      19115F BLASZCZYK         MR. JOHN F BLASZCZYK          APT 407                       2275 WINCHESTER AVE           PHILADELPHIA        PA                 077                    0087    5112     01065529639242                0042A      0030190479500100000019115511207FDATDFFDDDDFTFAADFTATTAAADADFDDTTTDTTDADTTDDDFTFDFTAFTADFATADAFAA
K9S12A901      19124FALLEN              ROBERT FALLEN                                               4044 MARKLAND ST              PHILADELPHIA        PA                 444                    C038    5330     01065529639480                0054D      0030190479500100000019124533044TFATTDAFAATFATDDFTFFTATTTFTTDFFTTFFDTFATFTAFTATFADTADTTDFTADTAFDF
K9S18A201      19135SPRINGER            C SPRINGER                                                  7023 ALGARD ST                PHILADELPHIA        PA                 237                    C015    1701     01065529639722                0049A      0030190479500100000019135170123DADDAADAFDFAFAFDATAFADDAFFTDFADDDFTTTTTTDFADTFDDAADTDTAAFFFTFDFDT
K9S18A201      19147BUCCELLA            FRANCIS A BUCCELLA                                          1113 ELLSWORTH ST             PHILADELPHIA        PA                 139                    C035    4605     01065529639960                0090A      0030190479500100000019147460513ATTAFAADTDFTDTDATDFTAFTDDDADTDDADAADDTDDTAAFDFADDDTDFFFAADDFAFDFD
K9S13A601      19320IACONO              STEVEN LOUIS IACONO                                         212 JONATHAN DR               COATESVILLE         PA                 122                    C017    2008     01065529640208                0044A      0030190479500100000019320200812FDFATDADFAAFTFFDFFDADADATAADFTFTFFFAFDDDAAATADAFFFDFDATFTDAAAFDAD
K9S12A901      19355WRIGHT              CHARLES J WRIGHT                                            2220 BODINE RD                MALVERN             PA                 208                    R006    8621     01065529640445                0184A      0030190479500100000019355862120TFFTATFAFDADADDATAFTAADTDTAFFFFAAAATATDTDATFFFATFTFTADFDDDAAFATFF
K9S12A901      19401FRANGIOSO           SALVATORE G FRANGIOSO                                       2325 NEW HOPE ST              NORRISTOWN          PA                 252                    C014    2022     01065529640674                0071D      0030190479500100000019401202225TFATADDDTAAFFDTFTFTATFATTFDAAFDFDFATTDAAFADATDTADDTTDTTFTFAATTTTD
